{
  "_format": "hh-sol-artifact-1",
  "contractName": "MyNFTMarketplace",
  "sourceName": "contracts/MyNFTMarketplace.sol",
  "abi": [
    {
      "inputs": [],
      "stateMutability": "nonpayable",
      "type": "constructor"
    },
    {
      "inputs": [
        {
          "internalType": "address",
          "name": "sender",
          "type": "address"
        },
        {
          "internalType": "uint256",
          "name": "tokenId",
          "type": "uint256"
        },
        {
          "internalType": "address",
          "name": "owner",
          "type": "address"
        }
      ],
      "name": "ERC721IncorrectOwner",
      "type": "error"
    },
    {
      "inputs": [
        {
          "internalType": "address",
          "name": "operator",
          "type": "address"
        },
        {
          "internalType": "uint256",
          "name": "tokenId",
          "type": "uint256"
        }
      ],
      "name": "ERC721InsufficientApproval",
      "type": "error"
    },
    {
      "inputs": [
        {
          "internalType": "address",
          "name": "approver",
          "type": "address"
        }
      ],
      "name": "ERC721InvalidApprover",
      "type": "error"
    },
    {
      "inputs": [
        {
          "internalType": "address",
          "name": "operator",
          "type": "address"
        }
      ],
      "name": "ERC721InvalidOperator",
      "type": "error"
    },
    {
      "inputs": [
        {
          "internalType": "address",
          "name": "owner",
          "type": "address"
        }
      ],
      "name": "ERC721InvalidOwner",
      "type": "error"
    },
    {
      "inputs": [
        {
          "internalType": "address",
          "name": "receiver",
          "type": "address"
        }
      ],
      "name": "ERC721InvalidReceiver",
      "type": "error"
    },
    {
      "inputs": [
        {
          "internalType": "address",
          "name": "sender",
          "type": "address"
        }
      ],
      "name": "ERC721InvalidSender",
      "type": "error"
    },
    {
      "inputs": [
        {
          "internalType": "uint256",
          "name": "tokenId",
          "type": "uint256"
        }
      ],
      "name": "ERC721NonexistentToken",
      "type": "error"
    },
    {
      "inputs": [
        {
          "internalType": "address",
          "name": "owner",
          "type": "address"
        }
      ],
      "name": "OwnableInvalidOwner",
      "type": "error"
    },
    {
      "inputs": [
        {
          "internalType": "address",
          "name": "account",
          "type": "address"
        }
      ],
      "name": "OwnableUnauthorizedAccount",
      "type": "error"
    },
    {
      "anonymous": false,
      "inputs": [
        {
          "indexed": true,
          "internalType": "address",
          "name": "owner",
          "type": "address"
        },
        {
          "indexed": true,
          "internalType": "address",
          "name": "approved",
          "type": "address"
        },
        {
          "indexed": true,
          "internalType": "uint256",
          "name": "tokenId",
          "type": "uint256"
        }
      ],
      "name": "Approval",
      "type": "event"
    },
    {
      "anonymous": false,
      "inputs": [
        {
          "indexed": true,
          "internalType": "address",
          "name": "owner",
          "type": "address"
        },
        {
          "indexed": true,
          "internalType": "address",
          "name": "operator",
          "type": "address"
        },
        {
          "indexed": false,
          "internalType": "bool",
          "name": "approved",
          "type": "bool"
        }
      ],
      "name": "ApprovalForAll",
      "type": "event"
    },
    {
      "anonymous": false,
      "inputs": [
        {
          "indexed": false,
          "internalType": "uint256",
          "name": "_fromTokenId",
          "type": "uint256"
        },
        {
          "indexed": false,
          "internalType": "uint256",
          "name": "_toTokenId",
          "type": "uint256"
        }
      ],
      "name": "BatchMetadataUpdate",
      "type": "event"
    },
    {
      "anonymous": false,
      "inputs": [
        {
          "indexed": false,
          "internalType": "uint256",
          "name": "_tokenId",
          "type": "uint256"
        }
      ],
      "name": "MetadataUpdate",
      "type": "event"
    },
    {
      "anonymous": false,
      "inputs": [
        {
          "indexed": true,
          "internalType": "uint256",
          "name": "tokenId",
          "type": "uint256"
        },
        {
          "indexed": true,
          "internalType": "address",
          "name": "owner",
          "type": "address"
        },
        {
          "indexed": false,
          "internalType": "string",
          "name": "tokenURI",
          "type": "string"
        }
      ],
      "name": "NFTMinted",
      "type": "event"
    },
    {
      "anonymous": false,
      "inputs": [
        {
          "indexed": true,
          "internalType": "uint256",
          "name": "tokenId",
          "type": "uint256"
        },
        {
          "indexed": true,
          "internalType": "address",
          "name": "from",
          "type": "address"
        },
        {
          "indexed": true,
          "internalType": "address",
          "name": "to",
          "type": "address"
        }
      ],
      "name": "NFTTransferred",
      "type": "event"
    },
    {
      "anonymous": false,
      "inputs": [
        {
          "indexed": true,
          "internalType": "address",
          "name": "previousOwner",
          "type": "address"
        },
        {
          "indexed": true,
          "internalType": "address",
          "name": "newOwner",
          "type": "address"
        }
      ],
      "name": "OwnershipTransferred",
      "type": "event"
    },
    {
      "anonymous": false,
      "inputs": [
        {
          "indexed": true,
          "internalType": "address",
          "name": "userAddress",
          "type": "address"
        },
        {
          "indexed": true,
          "internalType": "string",
          "name": "storeName",
          "type": "string"
        }
      ],
      "name": "SellerRegistered",
      "type": "event"
    },
    {
      "anonymous": false,
      "inputs": [
        {
          "indexed": true,
          "internalType": "address",
          "name": "from",
          "type": "address"
        },
        {
          "indexed": true,
          "internalType": "address",
          "name": "to",
          "type": "address"
        },
        {
          "indexed": true,
          "internalType": "uint256",
          "name": "tokenId",
          "type": "uint256"
        }
      ],
      "name": "Transfer",
      "type": "event"
    },
    {
      "inputs": [
        {
          "internalType": "address",
          "name": "to",
          "type": "address"
        },
        {
          "internalType": "uint256",
          "name": "tokenId",
          "type": "uint256"
        }
      ],
      "name": "approve",
      "outputs": [],
      "stateMutability": "nonpayable",
      "type": "function"
    },
    {
      "inputs": [
        {
          "internalType": "address",
          "name": "owner",
          "type": "address"
        }
      ],
      "name": "balanceOf",
      "outputs": [
        {
          "internalType": "uint256",
          "name": "",
          "type": "uint256"
        }
      ],
      "stateMutability": "view",
      "type": "function"
    },
    {
      "inputs": [
        {
          "internalType": "address",
          "name": "_sellerAddress",
          "type": "address"
        },
        {
          "internalType": "uint8",
          "name": "_itemId",
          "type": "uint8"
        }
      ],
      "name": "buyItem",
      "outputs": [],
      "stateMutability": "payable",
      "type": "function"
    },
    {
      "inputs": [
        {
          "internalType": "uint8",
          "name": "_itemId",
          "type": "uint8"
        },
        {
          "internalType": "string",
          "name": "TokenURI",
          "type": "string"
        }
      ],
      "name": "changeAvailability",
      "outputs": [],
      "stateMutability": "nonpayable",
      "type": "function"
    },
    {
      "inputs": [
        {
          "internalType": "address",
          "name": "_sellerAddress",
          "type": "address"
        }
      ],
      "name": "getAllItemIdsBySeller",
      "outputs": [
        {
          "internalType": "uint8[]",
          "name": "",
          "type": "uint8[]"
        }
      ],
      "stateMutability": "view",
      "type": "function"
    },
    {
      "inputs": [
        {
          "internalType": "address",
          "name": "_sellerAddress",
          "type": "address"
        }
      ],
      "name": "getAllItemsBySellers",
      "outputs": [
        {
          "internalType": "string[]",
          "name": "",
          "type": "string[]"
        },
        {
          "internalType": "uint256[]",
          "name": "",
          "type": "uint256[]"
        },
        {
          "internalType": "uint256[]",
          "name": "",
          "type": "uint256[]"
        },
        {
          "internalType": "uint256[]",
          "name": "",
          "type": "uint256[]"
        },
        {
          "internalType": "bool[]",
          "name": "",
          "type": "bool[]"
        }
      ],
      "stateMutability": "view",
      "type": "function"
    },
    {
      "inputs": [
        {
          "internalType": "uint256",
          "name": "tokenId",
          "type": "uint256"
        }
      ],
      "name": "getApproved",
      "outputs": [
        {
          "internalType": "address",
          "name": "",
          "type": "address"
        }
      ],
      "stateMutability": "view",
      "type": "function"
    },
    {
      "inputs": [
        {
          "internalType": "address",
          "name": "_sellerAddress",
          "type": "address"
        },
        {
          "internalType": "uint8",
          "name": "_itemId",
          "type": "uint8"
        },
        {
          "internalType": "string",
          "name": "pinataGateway",
          "type": "string"
        }
      ],
      "name": "getImageDisplayLinks",
      "outputs": [
        {
          "internalType": "string[]",
          "name": "",
          "type": "string[]"
        }
      ],
      "stateMutability": "view",
      "type": "function"
    },
    {
      "inputs": [
        {
          "internalType": "address",
          "name": "_sellerAddress",
          "type": "address"
        }
      ],
      "name": "getToSellList",
      "outputs": [
        {
          "internalType": "address[]",
          "name": "",
          "type": "address[]"
        },
        {
          "internalType": "uint256[]",
          "name": "",
          "type": "uint256[]"
        }
      ],
      "stateMutability": "view",
      "type": "function"
    },
    {
      "inputs": [
        {
          "internalType": "address",
          "name": "owner",
          "type": "address"
        },
        {
          "internalType": "address",
          "name": "operator",
          "type": "address"
        }
      ],
      "name": "isApprovedForAll",
      "outputs": [
        {
          "internalType": "bool",
          "name": "",
          "type": "bool"
        }
      ],
      "stateMutability": "view",
      "type": "function"
    },
    {
      "inputs": [
        {
          "internalType": "uint8",
          "name": "_itemId",
          "type": "uint8"
        },
        {
          "internalType": "string",
          "name": "_itemName",
          "type": "string"
        },
        {
          "internalType": "uint256",
          "name": "_price",
          "type": "uint256"
        },
        {
          "internalType": "string[]",
          "name": "_imageURI",
          "type": "string[]"
        },
        {
          "internalType": "bool",
          "name": "_available",
          "type": "bool"
        },
        {
          "internalType": "string",
          "name": "tokenURI",
          "type": "string"
        }
      ],
      "name": "listItem",
      "outputs": [],
      "stateMutability": "nonpayable",
      "type": "function"
    },
    {
      "inputs": [],
      "name": "name",
      "outputs": [
        {
          "internalType": "string",
          "name": "",
          "type": "string"
        }
      ],
      "stateMutability": "view",
      "type": "function"
    },
    {
      "inputs": [],
      "name": "owner",
      "outputs": [
        {
          "internalType": "address",
          "name": "",
          "type": "address"
        }
      ],
      "stateMutability": "view",
      "type": "function"
    },
    {
      "inputs": [
        {
          "internalType": "uint256",
          "name": "tokenId",
          "type": "uint256"
        }
      ],
      "name": "ownerOf",
      "outputs": [
        {
          "internalType": "address",
          "name": "",
          "type": "address"
        }
      ],
      "stateMutability": "view",
      "type": "function"
    },
    {
      "inputs": [
        {
          "internalType": "string",
          "name": "_storeName",
          "type": "string"
        }
      ],
      "name": "registerAsSeller",
      "outputs": [],
      "stateMutability": "payable",
      "type": "function"
    },
    {
      "inputs": [],
      "name": "renounceOwnership",
      "outputs": [],
      "stateMutability": "nonpayable",
      "type": "function"
    },
    {
      "inputs": [
        {
          "internalType": "address",
          "name": "from",
          "type": "address"
        },
        {
          "internalType": "address",
          "name": "to",
          "type": "address"
        },
        {
          "internalType": "uint256",
          "name": "tokenId",
          "type": "uint256"
        }
      ],
      "name": "safeTransferFrom",
      "outputs": [],
      "stateMutability": "nonpayable",
      "type": "function"
    },
    {
      "inputs": [
        {
          "internalType": "address",
          "name": "from",
          "type": "address"
        },
        {
          "internalType": "address",
          "name": "to",
          "type": "address"
        },
        {
          "internalType": "uint256",
          "name": "tokenId",
          "type": "uint256"
        },
        {
          "internalType": "bytes",
          "name": "data",
          "type": "bytes"
        }
      ],
      "name": "safeTransferFrom",
      "outputs": [],
      "stateMutability": "nonpayable",
      "type": "function"
    },
    {
      "inputs": [
        {
          "internalType": "address",
          "name": "operator",
          "type": "address"
        },
        {
          "internalType": "bool",
          "name": "approved",
          "type": "bool"
        }
      ],
      "name": "setApprovalForAll",
      "outputs": [],
      "stateMutability": "nonpayable",
      "type": "function"
    },
    {
      "inputs": [
        {
          "internalType": "bytes4",
          "name": "interfaceId",
          "type": "bytes4"
        }
      ],
      "name": "supportsInterface",
      "outputs": [
        {
          "internalType": "bool",
          "name": "",
          "type": "bool"
        }
      ],
      "stateMutability": "view",
      "type": "function"
    },
    {
      "inputs": [],
      "name": "symbol",
      "outputs": [
        {
          "internalType": "string",
          "name": "",
          "type": "string"
        }
      ],
      "stateMutability": "view",
      "type": "function"
    },
    {
      "inputs": [
        {
          "internalType": "uint256",
          "name": "tokenId",
          "type": "uint256"
        }
      ],
      "name": "tokenURI",
      "outputs": [
        {
          "internalType": "string",
          "name": "",
          "type": "string"
        }
      ],
      "stateMutability": "view",
      "type": "function"
    },
    {
      "inputs": [
        {
          "internalType": "address",
          "name": "from",
          "type": "address"
        },
        {
          "internalType": "address",
          "name": "to",
          "type": "address"
        },
        {
          "internalType": "uint256",
          "name": "tokenId",
          "type": "uint256"
        }
      ],
      "name": "transferFrom",
      "outputs": [],
      "stateMutability": "nonpayable",
      "type": "function"
    },
    {
      "inputs": [
        {
          "internalType": "address",
          "name": "to",
          "type": "address"
        },
        {
          "internalType": "uint256",
          "name": "tokenId",
          "type": "uint256"
        }
      ],
      "name": "transferNFT",
      "outputs": [],
      "stateMutability": "nonpayable",
      "type": "function"
    },
    {
      "inputs": [
        {
          "internalType": "address",
          "name": "newOwner",
          "type": "address"
        }
      ],
      "name": "transferOwnership",
      "outputs": [],
      "stateMutability": "nonpayable",
      "type": "function"
    }
  ],
  "bytecode": "0x608060405234801561001057600080fd5b50336040518060400160405280600681526020017f4a656e69736800000000000000000000000000000000000000000000000000008152506040518060400160405280600381526020017f4a454e0000000000000000000000000000000000000000000000000000000000815250816000908161008d919061051c565b50806001908161009d919061051c565b505050600073ffffffffffffffffffffffffffffffffffffffff168173ffffffffffffffffffffffffffffffffffffffff16036101125760006040517f1e4fbdf7000000000000000000000000000000000000000000000000000000008152600401610109919061062f565b60405180910390fd5b6101218161020660201b60201c565b50600060088190555060405180604001604052803373ffffffffffffffffffffffffffffffffffffffff16815260200160011515815250600960003373ffffffffffffffffffffffffffffffffffffffff1673ffffffffffffffffffffffffffffffffffffffff16815260200190815260200160002060008201518160000160006101000a81548173ffffffffffffffffffffffffffffffffffffffff021916908373ffffffffffffffffffffffffffffffffffffffff16021790555060208201518160000160146101000a81548160ff02191690831515021790555090505061064a565b6000600760009054906101000a900473ffffffffffffffffffffffffffffffffffffffff16905081600760006101000a81548173ffffffffffffffffffffffffffffffffffffffff021916908373ffffffffffffffffffffffffffffffffffffffff1602179055508173ffffffffffffffffffffffffffffffffffffffff168173ffffffffffffffffffffffffffffffffffffffff167f8be0079c531659141344cd1fd0a4f28419497f9722a3daafe3b4186f6b6457e060405160405180910390a35050565b600081519050919050565b7f4e487b7100000000000000000000000000000000000000000000000000000000600052604160045260246000fd5b7f4e487b7100000000000000000000000000000000000000000000000000000000600052602260045260246000fd5b6000600282049050600182168061034d57607f821691505b6020821081036103605761035f610306565b5b50919050565b60008190508160005260206000209050919050565b60006020601f8301049050919050565b600082821b905092915050565b6000600883026103c87fffffffffffffffffffffffffffffffffffffffffffffffffffffffffffffffff8261038b565b6103d2868361038b565b95508019841693508086168417925050509392505050565b6000819050919050565b6000819050919050565b600061041961041461040f846103ea565b6103f4565b6103ea565b9050919050565b6000819050919050565b610433836103fe565b61044761043f82610420565b848454610398565b825550505050565b600090565b61045c61044f565b61046781848461042a565b505050565b5b8181101561048b57610480600082610454565b60018101905061046d565b5050565b601f8211156104d0576104a181610366565b6104aa8461037b565b810160208510156104b9578190505b6104cd6104c58561037b565b83018261046c565b50505b505050565b600082821c905092915050565b60006104f3600019846008026104d5565b1980831691505092915050565b600061050c83836104e2565b9150826002028217905092915050565b610525826102cc565b67ffffffffffffffff81111561053e5761053d6102d7565b5b6105488254610335565b61055382828561048f565b600060209050601f8311600181146105865760008415610574578287015190505b61057e8582610500565b8655506105e6565b601f19841661059486610366565b60005b828110156105bc57848901518255600182019150602085019450602081019050610597565b868310156105d957848901516105d5601f8916826104e2565b8355505b6001600288020188555050505b505050505050565b600073ffffffffffffffffffffffffffffffffffffffff82169050919050565b6000610619826105ee565b9050919050565b6106298161060e565b82525050565b60006020820190506106446000830184610620565b92915050565b615085806106596000396000f3fe6080604052600436106101665760003560e01c8063762d7f38116100d1578063c12870f81161008a578063e7ae62a711610064578063e7ae62a714610543578063e985e9c51461056c578063f2fde38b146105a9578063f824eed6146105d257610166565b8063c12870f8146104ad578063c87b56dd146104c9578063d914171b1461050657610166565b8063762d7f381461039e5780638da5cb5b146103dc57806394ab67fe1461040757806395d89b4114610430578063a22cb4651461045b578063b88d4fde1461048457610166565b80634a3b4f87116101235780634a3b4f871461028b57806359fe7cd2146102b45780636352211e146102d05780636880b83a1461030d57806370a082311461034a578063715018a61461038757610166565b806301ffc9a71461016b57806306fdde03146101a8578063081812fc146101d3578063095ea7b31461021057806323b872dd1461023957806342842e0e14610262575b600080fd5b34801561017757600080fd5b50610192600480360381019061018d9190613741565b610613565b60405161019f9190613789565b60405180910390f35b3480156101b457600080fd5b506101bd610674565b6040516101ca9190613834565b60405180910390f35b3480156101df57600080fd5b506101fa60048036038101906101f5919061388c565b610706565b60405161020791906138fa565b60405180910390f35b34801561021c57600080fd5b5061023760048036038101906102329190613941565b610722565b005b34801561024557600080fd5b50610260600480360381019061025b9190613981565b610738565b005b34801561026e57600080fd5b5061028960048036038101906102849190613981565b61083a565b005b34801561029757600080fd5b506102b260048036038101906102ad9190613b42565b61085a565b005b6102ce60048036038101906102c99190613b9e565b610b4e565b005b3480156102dc57600080fd5b506102f760048036038101906102f2919061388c565b610f2c565b60405161030491906138fa565b60405180910390f35b34801561031957600080fd5b50610334600480360381019061032f9190613bde565b610f3e565b6040516103419190613cc9565b60405180910390f35b34801561035657600080fd5b50610371600480360381019061036c9190613bde565b610ffb565b60405161037e9190613cfa565b60405180910390f35b34801561039357600080fd5b5061039c6110b5565b005b3480156103aa57600080fd5b506103c560048036038101906103c09190613bde565b6110c9565b6040516103d3929190613e91565b60405180910390f35b3480156103e857600080fd5b506103f1611233565b6040516103fe91906138fa565b60405180910390f35b34801561041357600080fd5b5061042e60048036038101906104299190613941565b61125d565b005b34801561043c57600080fd5b5061044561133d565b6040516104529190613834565b60405180910390f35b34801561046757600080fd5b50610482600480360381019061047d9190613ef4565b6113cf565b005b34801561049057600080fd5b506104ab60048036038101906104a69190613fd5565b6113e5565b005b6104c760048036038101906104c29190614058565b61140a565b005b3480156104d557600080fd5b506104f060048036038101906104eb919061388c565b611708565b6040516104fd9190613834565b60405180910390f35b34801561051257600080fd5b5061052d600480360381019061052891906140a1565b61181b565b60405161053a919061421c565b60405180910390f35b34801561054f57600080fd5b5061056a60048036038101906105659190614324565b6118fe565b005b34801561057857600080fd5b50610593600480360381019061058e9190614405565b611bee565b6040516105a09190613789565b60405180910390f35b3480156105b557600080fd5b506105d060048036038101906105cb9190613bde565b611c82565b005b3480156105de57600080fd5b506105f960048036038101906105f49190613bde565b611d08565b60405161060a959493929190614503565b60405180910390f35b6000634906490660e01b7bffffffffffffffffffffffffffffffffffffffffffffffffffffffff1916827bffffffffffffffffffffffffffffffffffffffffffffffffffffffff1916148061066d575061066c82612233565b5b9050919050565b606060008054610683906145a8565b80601f01602080910402602001604051908101604052809291908181526020018280546106af906145a8565b80156106fc5780601f106106d1576101008083540402835291602001916106fc565b820191906000526020600020905b8154815290600101906020018083116106df57829003601f168201915b5050505050905090565b600061071182612315565b5061071b8261239d565b9050919050565b610734828261072f6123da565b6123e2565b5050565b600073ffffffffffffffffffffffffffffffffffffffff168273ffffffffffffffffffffffffffffffffffffffff16036107aa5760006040517f64a0ae920000000000000000000000000000000000000000000000000000000081526004016107a191906138fa565b60405180910390fd5b60006107be83836107b96123da565b6123f4565b90508373ffffffffffffffffffffffffffffffffffffffff168173ffffffffffffffffffffffffffffffffffffffff1614610834578382826040517f64283d7b00000000000000000000000000000000000000000000000000000000815260040161082b939291906145d9565b60405180910390fd5b50505050565b610855838383604051806020016040528060008152506113e5565b505050565b3373ffffffffffffffffffffffffffffffffffffffff16600b60003373ffffffffffffffffffffffffffffffffffffffff1673ffffffffffffffffffffffffffffffffffffffff16815260200190815260200160002060006108bf338660ff1661260e565b60ff1660ff16815260200190815260200160002060000160009054906101000a900473ffffffffffffffffffffffffffffffffffffffff1673ffffffffffffffffffffffffffffffffffffffff161461094d576040517f08c379a000000000000000000000000000000000000000000000000000000000815260040161094490614682565b60405180910390fd5b6000600b60003373ffffffffffffffffffffffffffffffffffffffff1673ffffffffffffffffffffffffffffffffffffffff168152602001908152602001600020600061099d338660ff1661260e565b60ff1660ff16815260200190815260200160002060050160009054906101000a900460ff1690506001151581151503610a53576000600b60003373ffffffffffffffffffffffffffffffffffffffff1673ffffffffffffffffffffffffffffffffffffffff1681526020019081526020016000206000610a20338760ff1661260e565b60ff1660ff16815260200190815260200160002060050160006101000a81548160ff021916908315150217905550610b49565b6001600b60003373ffffffffffffffffffffffffffffffffffffffff1673ffffffffffffffffffffffffffffffffffffffff1681526020019081526020016000206000610aa3338760ff1661260e565b60ff1660ff16815260200190815260200160002060050160006101000a81548160ff021916908315150217905550600854600b60003373ffffffffffffffffffffffffffffffffffffffff1673ffffffffffffffffffffffffffffffffffffffff1681526020019081526020016000206000610b22338760ff1661260e565b60ff1660ff16815260200190815260200160002060010181905550610b473383612704565b505b505050565b6000600b60008473ffffffffffffffffffffffffffffffffffffffff1673ffffffffffffffffffffffffffffffffffffffff1681526020019081526020016000206000610b9e858560ff1661260e565b60ff1660ff16815260200190815260200160002090508060050160009054906101000a900460ff16610c05576040517f08c379a0000000000000000000000000000000000000000000000000000000008152600401610bfc906146ee565b60405180910390fd5b633b9aca008160040154610c19919061473d565b3414610c5a576040517f08c379a0000000000000000000000000000000000000000000000000000000008152600401610c51906147cb565b60405180910390fd5b8273ffffffffffffffffffffffffffffffffffffffff16610c7e8260010154610f2c565b73ffffffffffffffffffffffffffffffffffffffff1614610cd4576040517f08c379a0000000000000000000000000000000000000000000000000000000008152600401610ccb90614837565b60405180910390fd5b8273ffffffffffffffffffffffffffffffffffffffff166108fc349081150290604051600060405180830381858888f19350505050158015610d1a573d6000803e3d6000fd5b50600a60008473ffffffffffffffffffffffffffffffffffffffff1673ffffffffffffffffffffffffffffffffffffffff168152602001908152602001600020600301339080600181540180825580915050600190039060005260206000200160009091909190916101000a81548173ffffffffffffffffffffffffffffffffffffffff021916908373ffffffffffffffffffffffffffffffffffffffff160217905550600a60008473ffffffffffffffffffffffffffffffffffffffff1673ffffffffffffffffffffffffffffffffffffffff168152602001908152602001600020600401816001015490806001815401808255809150506001900390600052602060002001600090919091909150556000600b60008573ffffffffffffffffffffffffffffffffffffffff1673ffffffffffffffffffffffffffffffffffffffff1681526020019081526020016000206000610e7b868660ff1661260e565b60ff1660ff16815260200190815260200160002060050160006101000a81548160ff0219169083151502179055506000600b60008573ffffffffffffffffffffffffffffffffffffffff1673ffffffffffffffffffffffffffffffffffffffff1681526020019081526020016000206000610ef9868660ff1661260e565b60ff1660ff16815260200190815260200160002060050160006101000a81548160ff021916908315150217905550505050565b6000610f3782612315565b9050919050565b6060600c60008373ffffffffffffffffffffffffffffffffffffffff1673ffffffffffffffffffffffffffffffffffffffff168152602001908152602001600020805480602002602001604051908101604052809291908181526020018280548015610fef57602002820191906000526020600020906000905b82829054906101000a900460ff1660ff1681526020019060010190602082600001049283019260010382029150808411610fb85790505b50505050509050919050565b60008073ffffffffffffffffffffffffffffffffffffffff168273ffffffffffffffffffffffffffffffffffffffff160361106e5760006040517f89c62b6400000000000000000000000000000000000000000000000000000000815260040161106591906138fa565b60405180910390fd5b600360008373ffffffffffffffffffffffffffffffffffffffff1673ffffffffffffffffffffffffffffffffffffffff168152602001908152602001600020549050919050565b6110bd612791565b6110c76000612818565b565b606080600a60008473ffffffffffffffffffffffffffffffffffffffff1673ffffffffffffffffffffffffffffffffffffffff168152602001908152602001600020600301600a60008573ffffffffffffffffffffffffffffffffffffffff1673ffffffffffffffffffffffffffffffffffffffff168152602001908152602001600020600401818054806020026020016040519081016040528092919081815260200182805480156111d157602002820191906000526020600020905b8160009054906101000a900473ffffffffffffffffffffffffffffffffffffffff1673ffffffffffffffffffffffffffffffffffffffff1681526020019060010190808311611187575b505050505091508080548060200260200160405190810160405280929190818152602001828054801561122357602002820191906000526020600020905b81548152602001906001019080831161120f575b5050505050905091509150915091565b6000600760009054906101000a900473ffffffffffffffffffffffffffffffffffffffff16905090565b3373ffffffffffffffffffffffffffffffffffffffff1661127d82610f2c565b73ffffffffffffffffffffffffffffffffffffffff16146112d3576040517f08c379a00000000000000000000000000000000000000000000000000000000081526004016112ca906148c9565b60405180910390fd5b6112de33838361083a565b8173ffffffffffffffffffffffffffffffffffffffff163373ffffffffffffffffffffffffffffffffffffffff16827f67043fac5fd2bf9edbb46ee495aaed7f97f91d43507d373be2b592af19b8c0a860405160405180910390a45050565b60606001805461134c906145a8565b80601f0160208091040260200160405190810160405280929190818152602001828054611378906145a8565b80156113c55780601f1061139a576101008083540402835291602001916113c5565b820191906000526020600020905b8154815290600101906020018083116113a857829003601f168201915b5050505050905090565b6113e16113da6123da565b83836128de565b5050565b6113f0848484610738565b6114046113fb6123da565b85858585612a4d565b50505050565b600a60003373ffffffffffffffffffffffffffffffffffffffff1673ffffffffffffffffffffffffffffffffffffffff16815260200190815260200160002060020160009054906101000a900460ff161561149a576040517f08c379a000000000000000000000000000000000000000000000000000000000815260040161149190614935565b60405180910390fd5b6402540be40034146114e1576040517f08c379a00000000000000000000000000000000000000000000000000000000081526004016114d8906149c7565b60405180910390fd5b6040518060a001604052803373ffffffffffffffffffffffffffffffffffffffff168152602001828152602001600115158152602001600067ffffffffffffffff81111561153257611531613a17565b5b6040519080825280602002602001820160405280156115605781602001602082028036833780820191505090505b508152602001600067ffffffffffffffff81111561158157611580613a17565b5b6040519080825280602002602001820160405280156115af5781602001602082028036833780820191505090505b50815250600a60003373ffffffffffffffffffffffffffffffffffffffff1673ffffffffffffffffffffffffffffffffffffffff16815260200190815260200160002060008201518160000160006101000a81548173ffffffffffffffffffffffffffffffffffffffff021916908373ffffffffffffffffffffffffffffffffffffffff160217905550602082015181600101908161164e9190614b93565b5060408201518160020160006101000a81548160ff021916908315150217905550606082015181600301908051906020019061168b929190613524565b5060808201518160040190805190602001906116a89291906135ae565b50905050806040516116ba9190614ca1565b60405180910390203373ffffffffffffffffffffffffffffffffffffffff167fecef9454c60fab6a60b6f2aa319263c0f711cdb927c213e76687f7853b59784260405160405180910390a350565b606061171382612315565b506000600660008481526020019081526020016000208054611734906145a8565b80601f0160208091040260200160405190810160405280929190818152602001828054611760906145a8565b80156117ad5780601f10611782576101008083540402835291602001916117ad565b820191906000526020600020905b81548152906001019060200180831161179057829003601f168201915b5050505050905060006117be612bfe565b905060008151036117d3578192505050611816565b6000825111156118085780826040516020016117f0929190614cb8565b60405160208183030381529060405292505050611816565b61181184612c15565b925050505b919050565b606060006118298585612c7e565b90506000815167ffffffffffffffff81111561184857611847613a17565b5b60405190808252806020026020018201604052801561187b57816020015b60608152602001906001900390816118665790505b50905060005b82518110156118f1578483828151811061189e5761189d614cdc565b5b60200260200101516040516020016118b7929190614da3565b6040516020818303038152906040528282815181106118d9576118d8614cdc565b5b60200260200101819052508080600101915050611881565b5080925050509392505050565b600a60003373ffffffffffffffffffffffffffffffffffffffff1673ffffffffffffffffffffffffffffffffffffffff16815260200190815260200160002060020160009054906101000a900460ff1661198d576040517f08c379a000000000000000000000000000000000000000000000000000000000815260040161198490614e4f565b60405180910390fd5b600c60003373ffffffffffffffffffffffffffffffffffffffff1673ffffffffffffffffffffffffffffffffffffffff1681526020019081526020016000208690806001815401808255809150506001900390600052602060002090602091828204019190069091909190916101000a81548160ff021916908360ff16021790555060006001600c60003373ffffffffffffffffffffffffffffffffffffffff1673ffffffffffffffffffffffffffffffffffffffff16815260200190815260200160002080549050611a609190614e6f565b90506040518060e001604052803373ffffffffffffffffffffffffffffffffffffffff16815260200160085481526020018860ff168152602001878152602001868152602001841515815260200185815250600b60003373ffffffffffffffffffffffffffffffffffffffff1673ffffffffffffffffffffffffffffffffffffffff16815260200190815260200160002060008360ff1660ff16815260200190815260200160002060008201518160000160006101000a81548173ffffffffffffffffffffffffffffffffffffffff021916908373ffffffffffffffffffffffffffffffffffffffff1602179055506020820151816001015560408201518160020160006101000a81548160ff021916908360ff1602179055506060820151816003019081611b8f9190614b93565b506080820151816004015560a08201518160050160006101000a81548160ff02191690831515021790555060c0820151816006019080519060200190611bd69291906135fb565b50905050611be43383612704565b5050505050505050565b6000600560008473ffffffffffffffffffffffffffffffffffffffff1673ffffffffffffffffffffffffffffffffffffffff16815260200190815260200160002060008373ffffffffffffffffffffffffffffffffffffffff1673ffffffffffffffffffffffffffffffffffffffff16815260200190815260200160002060009054906101000a900460ff16905092915050565b611c8a612791565b600073ffffffffffffffffffffffffffffffffffffffff168173ffffffffffffffffffffffffffffffffffffffff1603611cfc5760006040517f1e4fbdf7000000000000000000000000000000000000000000000000000000008152600401611cf391906138fa565b60405180910390fd5b611d0581612818565b50565b60608060608060606000600c60008873ffffffffffffffffffffffffffffffffffffffff1673ffffffffffffffffffffffffffffffffffffffff16815260200190815260200160002080549050905060008167ffffffffffffffff811115611d7357611d72613a17565b5b604051908082528060200260200182016040528015611da657816020015b6060815260200190600190039081611d915790505b50905060008267ffffffffffffffff811115611dc557611dc4613a17565b5b604051908082528060200260200182016040528015611df35781602001602082028036833780820191505090505b50905060008367ffffffffffffffff811115611e1257611e11613a17565b5b604051908082528060200260200182016040528015611e405781602001602082028036833780820191505090505b50905060008467ffffffffffffffff811115611e5f57611e5e613a17565b5b604051908082528060200260200182016040528015611e8d5781602001602082028036833780820191505090505b50905060008567ffffffffffffffff811115611eac57611eab613a17565b5b604051908082528060200260200182016040528015611eda5781602001602082028036833780820191505090505b50905060005b868160ff16101561221457600b60008e73ffffffffffffffffffffffffffffffffffffffff1673ffffffffffffffffffffffffffffffffffffffff16815260200190815260200160002060008260ff1660ff1681526020019081526020016000206003018054611f4f906145a8565b80601f0160208091040260200160405190810160405280929190818152602001828054611f7b906145a8565b8015611fc85780601f10611f9d57610100808354040283529160200191611fc8565b820191906000526020600020905b815481529060010190602001808311611fab57829003601f168201915b5050505050868260ff1681518110611fe357611fe2614cdc565b5b6020026020010181905250600b60008e73ffffffffffffffffffffffffffffffffffffffff1673ffffffffffffffffffffffffffffffffffffffff16815260200190815260200160002060008260ff1660ff16815260200190815260200160002060040154858260ff168151811061205e5761205d614cdc565b5b602002602001018181525050600b60008e73ffffffffffffffffffffffffffffffffffffffff1673ffffffffffffffffffffffffffffffffffffffff16815260200190815260200160002060008260ff1660ff16815260200190815260200160002060010154848260ff16815181106120da576120d9614cdc565b5b602002602001018181525050600b60008e73ffffffffffffffffffffffffffffffffffffffff1673ffffffffffffffffffffffffffffffffffffffff16815260200190815260200160002060008260ff1660ff16815260200190815260200160002060020160009054906101000a900460ff1660ff16838260ff168151811061216657612165614cdc565b5b602002602001018181525050600b60008e73ffffffffffffffffffffffffffffffffffffffff1673ffffffffffffffffffffffffffffffffffffffff16815260200190815260200160002060008260ff1660ff16815260200190815260200160002060050160009054906101000a900460ff16828260ff16815181106121ef576121ee614cdc565b5b602002602001019015159081151581525050808061220c90614ea3565b915050611ee0565b5084848484849a509a509a509a509a5050505050505091939590929450565b60007f80ac58cd000000000000000000000000000000000000000000000000000000007bffffffffffffffffffffffffffffffffffffffffffffffffffffffff1916827bffffffffffffffffffffffffffffffffffffffffffffffffffffffff191614806122fe57507f5b5e139f000000000000000000000000000000000000000000000000000000007bffffffffffffffffffffffffffffffffffffffffffffffffffffffff1916827bffffffffffffffffffffffffffffffffffffffffffffffffffffffff1916145b8061230e575061230d82612dbd565b5b9050919050565b60008061232183612e27565b9050600073ffffffffffffffffffffffffffffffffffffffff168173ffffffffffffffffffffffffffffffffffffffff160361239457826040517f7e27328900000000000000000000000000000000000000000000000000000000815260040161238b9190613cfa565b60405180910390fd5b80915050919050565b60006004600083815260200190815260200160002060009054906101000a900473ffffffffffffffffffffffffffffffffffffffff169050919050565b600033905090565b6123ef8383836001612e64565b505050565b60008061240084612e27565b9050600073ffffffffffffffffffffffffffffffffffffffff168373ffffffffffffffffffffffffffffffffffffffff161461244257612441818486613029565b5b600073ffffffffffffffffffffffffffffffffffffffff168173ffffffffffffffffffffffffffffffffffffffff16146124d357612484600085600080612e64565b6001600360008373ffffffffffffffffffffffffffffffffffffffff1673ffffffffffffffffffffffffffffffffffffffff168152602001908152602001600020600082825403925050819055505b600073ffffffffffffffffffffffffffffffffffffffff168573ffffffffffffffffffffffffffffffffffffffff1614612556576001600360008773ffffffffffffffffffffffffffffffffffffffff1673ffffffffffffffffffffffffffffffffffffffff168152602001908152602001600020600082825401925050819055505b846002600086815260200190815260200160002060006101000a81548173ffffffffffffffffffffffffffffffffffffffff021916908373ffffffffffffffffffffffffffffffffffffffff160217905550838573ffffffffffffffffffffffffffffffffffffffff168273ffffffffffffffffffffffffffffffffffffffff167fddf252ad1be2c89b69c2b068fc378daa952ba7f163c4a11628f55a4df523b3ef60405160405180910390a4809150509392505050565b600080600090505b600c60008573ffffffffffffffffffffffffffffffffffffffff1673ffffffffffffffffffffffffffffffffffffffff168152602001908152602001600020805490508160ff1610156126fc5782600c60008673ffffffffffffffffffffffffffffffffffffffff1673ffffffffffffffffffffffffffffffffffffffff1681526020019081526020016000208260ff16815481106126b8576126b7614cdc565b5b90600052602060002090602091828204019190069054906101000a900460ff1660ff16036126e957809150506126fe565b80806126f490614ea3565b915050612616565b505b92915050565b600080600854905061271684826130ed565b61272081846131e6565b8373ffffffffffffffffffffffffffffffffffffffff16817f06becd955c918828f6e985541acbf49cc842c9e9bd569fffc7698e721ef13575856040516127679190613834565b60405180910390a36008600081548092919061278290614ecc565b91905055508091505092915050565b6127996123da565b73ffffffffffffffffffffffffffffffffffffffff166127b7611233565b73ffffffffffffffffffffffffffffffffffffffff1614612816576127da6123da565b6040517f118cdaa700000000000000000000000000000000000000000000000000000000815260040161280d91906138fa565b60405180910390fd5b565b6000600760009054906101000a900473ffffffffffffffffffffffffffffffffffffffff16905081600760006101000a81548173ffffffffffffffffffffffffffffffffffffffff021916908373ffffffffffffffffffffffffffffffffffffffff1602179055508173ffffffffffffffffffffffffffffffffffffffff168173ffffffffffffffffffffffffffffffffffffffff167f8be0079c531659141344cd1fd0a4f28419497f9722a3daafe3b4186f6b6457e060405160405180910390a35050565b600073ffffffffffffffffffffffffffffffffffffffff168273ffffffffffffffffffffffffffffffffffffffff160361294f57816040517f5b08ba1800000000000000000000000000000000000000000000000000000000815260040161294691906138fa565b60405180910390fd5b80600560008573ffffffffffffffffffffffffffffffffffffffff1673ffffffffffffffffffffffffffffffffffffffff16815260200190815260200160002060008473ffffffffffffffffffffffffffffffffffffffff1673ffffffffffffffffffffffffffffffffffffffff16815260200190815260200160002060006101000a81548160ff0219169083151502179055508173ffffffffffffffffffffffffffffffffffffffff168373ffffffffffffffffffffffffffffffffffffffff167f17307eab39ab6107e8899845ad3d59bd9653f200f220920489ca2b5937696c3183604051612a409190613789565b60405180910390a3505050565b60008373ffffffffffffffffffffffffffffffffffffffff163b1115612bf7578273ffffffffffffffffffffffffffffffffffffffff1663150b7a02868685856040518563ffffffff1660e01b8152600401612aac9493929190614f69565b6020604051808303816000875af1925050508015612ae857506040513d601f19601f82011682018060405250810190612ae59190614fca565b60015b612b6c573d8060008114612b18576040519150601f19603f3d011682016040523d82523d6000602084013e612b1d565b606091505b506000815103612b6457836040517f64a0ae92000000000000000000000000000000000000000000000000000000008152600401612b5b91906138fa565b60405180910390fd5b805181602001fd5b63150b7a0260e01b7bffffffffffffffffffffffffffffffffffffffffffffffffffffffff1916817bffffffffffffffffffffffffffffffffffffffffffffffffffffffff191614612bf557836040517f64a0ae92000000000000000000000000000000000000000000000000000000008152600401612bec91906138fa565b60405180910390fd5b505b5050505050565b606060405180602001604052806000815250905090565b6060612c2082612315565b506000612c2b612bfe565b90506000815111612c4b5760405180602001604052806000815250612c76565b80612c5584613242565b604051602001612c66929190614cb8565b6040516020818303038152906040525b915050919050565b6060600b60008473ffffffffffffffffffffffffffffffffffffffff1673ffffffffffffffffffffffffffffffffffffffff1681526020019081526020016000206000612cce858560ff1661260e565b60ff1660ff168152602001908152602001600020600601805480602002602001604051908101604052809291908181526020016000905b82821015612db1578382906000526020600020018054612d24906145a8565b80601f0160208091040260200160405190810160405280929190818152602001828054612d50906145a8565b8015612d9d5780601f10612d7257610100808354040283529160200191612d9d565b820191906000526020600020905b815481529060010190602001808311612d8057829003601f168201915b505050505081526020019060010190612d05565b50505050905092915050565b60007f01ffc9a7000000000000000000000000000000000000000000000000000000007bffffffffffffffffffffffffffffffffffffffffffffffffffffffff1916827bffffffffffffffffffffffffffffffffffffffffffffffffffffffff1916149050919050565b60006002600083815260200190815260200160002060009054906101000a900473ffffffffffffffffffffffffffffffffffffffff169050919050565b8080612e9d5750600073ffffffffffffffffffffffffffffffffffffffff168273ffffffffffffffffffffffffffffffffffffffff1614155b15612fd1576000612ead84612315565b9050600073ffffffffffffffffffffffffffffffffffffffff168373ffffffffffffffffffffffffffffffffffffffff1614158015612f1857508273ffffffffffffffffffffffffffffffffffffffff168173ffffffffffffffffffffffffffffffffffffffff1614155b8015612f2b5750612f298184611bee565b155b15612f6d57826040517fa9fbf51f000000000000000000000000000000000000000000000000000000008152600401612f6491906138fa565b60405180910390fd5b8115612fcf57838573ffffffffffffffffffffffffffffffffffffffff168273ffffffffffffffffffffffffffffffffffffffff167f8c5be1e5ebec7d5bd14f71427d1e84f3dd0314c0f7b2291e5b200ac8c7c3b92560405160405180910390a45b505b836004600085815260200190815260200160002060006101000a81548173ffffffffffffffffffffffffffffffffffffffff021916908373ffffffffffffffffffffffffffffffffffffffff16021790555050505050565b613034838383613310565b6130e857600073ffffffffffffffffffffffffffffffffffffffff168373ffffffffffffffffffffffffffffffffffffffff16036130a957806040517f7e2732890000000000000000000000000000000000000000000000000000000081526004016130a09190613cfa565b60405180910390fd5b81816040517f177e802f0000000000000000000000000000000000000000000000000000000081526004016130df929190614ff7565b60405180910390fd5b505050565b600073ffffffffffffffffffffffffffffffffffffffff168273ffffffffffffffffffffffffffffffffffffffff160361315f5760006040517f64a0ae9200000000000000000000000000000000000000000000000000000000815260040161315691906138fa565b60405180910390fd5b600061316d838360006123f4565b9050600073ffffffffffffffffffffffffffffffffffffffff168173ffffffffffffffffffffffffffffffffffffffff16146131e15760006040517f73c6ac6e0000000000000000000000000000000000000000000000000000000081526004016131d891906138fa565b60405180910390fd5b505050565b806006600084815260200190815260200160002090816132069190614b93565b507ff8e1a15aba9398e019f0b49df1a4fde98ee17ae345cb5f6b5e2c27f5033e8ce7826040516132369190613cfa565b60405180910390a15050565b606060006001613251846133d1565b01905060008167ffffffffffffffff8111156132705761326f613a17565b5b6040519080825280601f01601f1916602001820160405280156132a25781602001600182028036833780820191505090505b509050600082602001820190505b600115613305578080600190039150507f3031323334353637383961626364656600000000000000000000000000000000600a86061a8153600a85816132f9576132f8615020565b5b049450600085036132b0575b819350505050919050565b60008073ffffffffffffffffffffffffffffffffffffffff168373ffffffffffffffffffffffffffffffffffffffff16141580156133c857508273ffffffffffffffffffffffffffffffffffffffff168473ffffffffffffffffffffffffffffffffffffffff16148061338957506133888484611bee565b5b806133c757508273ffffffffffffffffffffffffffffffffffffffff166133af8361239d565b73ffffffffffffffffffffffffffffffffffffffff16145b5b90509392505050565b600080600090507a184f03e93ff9f4daa797ed6e38ed64bf6a1f010000000000000000831061342f577a184f03e93ff9f4daa797ed6e38ed64bf6a1f010000000000000000838161342557613424615020565b5b0492506040810190505b6d04ee2d6d415b85acef8100000000831061346c576d04ee2d6d415b85acef8100000000838161346257613461615020565b5b0492506020810190505b662386f26fc10000831061349b57662386f26fc10000838161349157613490615020565b5b0492506010810190505b6305f5e10083106134c4576305f5e10083816134ba576134b9615020565b5b0492506008810190505b61271083106134e95761271083816134df576134de615020565b5b0492506004810190505b6064831061350c576064838161350257613501615020565b5b0492506002810190505b600a831061351b576001810190505b80915050919050565b82805482825590600052602060002090810192821561359d579160200282015b8281111561359c5782518260006101000a81548173ffffffffffffffffffffffffffffffffffffffff021916908373ffffffffffffffffffffffffffffffffffffffff16021790555091602001919060010190613544565b5b5090506135aa9190613654565b5090565b8280548282559060005260206000209081019282156135ea579160200282015b828111156135e95782518255916020019190600101906135ce565b5b5090506135f79190613654565b5090565b828054828255906000526020600020908101928215613643579160200282015b828111156136425782518290816136329190614b93565b509160200191906001019061361b565b5b5090506136509190613671565b5090565b5b8082111561366d576000816000905550600101613655565b5090565b5b8082111561369157600081816136889190613695565b50600101613672565b5090565b5080546136a1906145a8565b6000825580601f106136b357506136d2565b601f0160209004906000526020600020908101906136d19190613654565b5b50565b6000604051905090565b600080fd5b600080fd5b60007fffffffff0000000000000000000000000000000000000000000000000000000082169050919050565b61371e816136e9565b811461372957600080fd5b50565b60008135905061373b81613715565b92915050565b600060208284031215613757576137566136df565b5b60006137658482850161372c565b91505092915050565b60008115159050919050565b6137838161376e565b82525050565b600060208201905061379e600083018461377a565b92915050565b600081519050919050565b600082825260208201905092915050565b60005b838110156137de5780820151818401526020810190506137c3565b60008484015250505050565b6000601f19601f8301169050919050565b6000613806826137a4565b61381081856137af565b93506138208185602086016137c0565b613829816137ea565b840191505092915050565b6000602082019050818103600083015261384e81846137fb565b905092915050565b6000819050919050565b61386981613856565b811461387457600080fd5b50565b60008135905061388681613860565b92915050565b6000602082840312156138a2576138a16136df565b5b60006138b084828501613877565b91505092915050565b600073ffffffffffffffffffffffffffffffffffffffff82169050919050565b60006138e4826138b9565b9050919050565b6138f4816138d9565b82525050565b600060208201905061390f60008301846138eb565b92915050565b61391e816138d9565b811461392957600080fd5b50565b60008135905061393b81613915565b92915050565b60008060408385031215613958576139576136df565b5b60006139668582860161392c565b925050602061397785828601613877565b9150509250929050565b60008060006060848603121561399a576139996136df565b5b60006139a88682870161392c565b93505060206139b98682870161392c565b92505060406139ca86828701613877565b9150509250925092565b600060ff82169050919050565b6139ea816139d4565b81146139f557600080fd5b50565b600081359050613a07816139e1565b92915050565b600080fd5b600080fd5b7f4e487b7100000000000000000000000000000000000000000000000000000000600052604160045260246000fd5b613a4f826137ea565b810181811067ffffffffffffffff82111715613a6e57613a6d613a17565b5b80604052505050565b6000613a816136d5565b9050613a8d8282613a46565b919050565b600067ffffffffffffffff821115613aad57613aac613a17565b5b613ab6826137ea565b9050602081019050919050565b82818337600083830152505050565b6000613ae5613ae084613a92565b613a77565b905082815260208101848484011115613b0157613b00613a12565b5b613b0c848285613ac3565b509392505050565b600082601f830112613b2957613b28613a0d565b5b8135613b39848260208601613ad2565b91505092915050565b60008060408385031215613b5957613b586136df565b5b6000613b67858286016139f8565b925050602083013567ffffffffffffffff811115613b8857613b876136e4565b5b613b9485828601613b14565b9150509250929050565b60008060408385031215613bb557613bb46136df565b5b6000613bc38582860161392c565b9250506020613bd4858286016139f8565b9150509250929050565b600060208284031215613bf457613bf36136df565b5b6000613c028482850161392c565b91505092915050565b600081519050919050565b600082825260208201905092915050565b6000819050602082019050919050565b613c40816139d4565b82525050565b6000613c528383613c37565b60208301905092915050565b6000602082019050919050565b6000613c7682613c0b565b613c808185613c16565b9350613c8b83613c27565b8060005b83811015613cbc578151613ca38882613c46565b9750613cae83613c5e565b925050600181019050613c8f565b5085935050505092915050565b60006020820190508181036000830152613ce38184613c6b565b905092915050565b613cf481613856565b82525050565b6000602082019050613d0f6000830184613ceb565b92915050565b600081519050919050565b600082825260208201905092915050565b6000819050602082019050919050565b613d4a816138d9565b82525050565b6000613d5c8383613d41565b60208301905092915050565b6000602082019050919050565b6000613d8082613d15565b613d8a8185613d20565b9350613d9583613d31565b8060005b83811015613dc6578151613dad8882613d50565b9750613db883613d68565b925050600181019050613d99565b5085935050505092915050565b600081519050919050565b600082825260208201905092915050565b6000819050602082019050919050565b613e0881613856565b82525050565b6000613e1a8383613dff565b60208301905092915050565b6000602082019050919050565b6000613e3e82613dd3565b613e488185613dde565b9350613e5383613def565b8060005b83811015613e84578151613e6b8882613e0e565b9750613e7683613e26565b925050600181019050613e57565b5085935050505092915050565b60006040820190508181036000830152613eab8185613d75565b90508181036020830152613ebf8184613e33565b90509392505050565b613ed18161376e565b8114613edc57600080fd5b50565b600081359050613eee81613ec8565b92915050565b60008060408385031215613f0b57613f0a6136df565b5b6000613f198582860161392c565b9250506020613f2a85828601613edf565b9150509250929050565b600067ffffffffffffffff821115613f4f57613f4e613a17565b5b613f58826137ea565b9050602081019050919050565b6000613f78613f7384613f34565b613a77565b905082815260208101848484011115613f9457613f93613a12565b5b613f9f848285613ac3565b509392505050565b600082601f830112613fbc57613fbb613a0d565b5b8135613fcc848260208601613f65565b91505092915050565b60008060008060808587031215613fef57613fee6136df565b5b6000613ffd8782880161392c565b945050602061400e8782880161392c565b935050604061401f87828801613877565b925050606085013567ffffffffffffffff8111156140405761403f6136e4565b5b61404c87828801613fa7565b91505092959194509250565b60006020828403121561406e5761406d6136df565b5b600082013567ffffffffffffffff81111561408c5761408b6136e4565b5b61409884828501613b14565b91505092915050565b6000806000606084860312156140ba576140b96136df565b5b60006140c88682870161392c565b93505060206140d9868287016139f8565b925050604084013567ffffffffffffffff8111156140fa576140f96136e4565b5b61410686828701613b14565b9150509250925092565b600081519050919050565b600082825260208201905092915050565b6000819050602082019050919050565b600082825260208201905092915050565b6000614158826137a4565b614162818561413c565b93506141728185602086016137c0565b61417b816137ea565b840191505092915050565b6000614192838361414d565b905092915050565b6000602082019050919050565b60006141b282614110565b6141bc818561411b565b9350836020820285016141ce8561412c565b8060005b8581101561420a57848403895281516141eb8582614186565b94506141f68361419a565b925060208a019950506001810190506141d2565b50829750879550505050505092915050565b6000602082019050818103600083015261423681846141a7565b905092915050565b600067ffffffffffffffff82111561425957614258613a17565b5b602082029050602081019050919050565b600080fd5b600061428261427d8461423e565b613a77565b905080838252602082019050602084028301858111156142a5576142a461426a565b5b835b818110156142ec57803567ffffffffffffffff8111156142ca576142c9613a0d565b5b8086016142d78982613b14565b855260208501945050506020810190506142a7565b5050509392505050565b600082601f83011261430b5761430a613a0d565b5b813561431b84826020860161426f565b91505092915050565b60008060008060008060c08789031215614341576143406136df565b5b600061434f89828a016139f8565b965050602087013567ffffffffffffffff8111156143705761436f6136e4565b5b61437c89828a01613b14565b955050604061438d89828a01613877565b945050606087013567ffffffffffffffff8111156143ae576143ad6136e4565b5b6143ba89828a016142f6565b93505060806143cb89828a01613edf565b92505060a087013567ffffffffffffffff8111156143ec576143eb6136e4565b5b6143f889828a01613b14565b9150509295509295509295565b6000806040838503121561441c5761441b6136df565b5b600061442a8582860161392c565b925050602061443b8582860161392c565b9150509250929050565b600081519050919050565b600082825260208201905092915050565b6000819050602082019050919050565b61447a8161376e565b82525050565b600061448c8383614471565b60208301905092915050565b6000602082019050919050565b60006144b082614445565b6144ba8185614450565b93506144c583614461565b8060005b838110156144f65781516144dd8882614480565b97506144e883614498565b9250506001810190506144c9565b5085935050505092915050565b600060a082019050818103600083015261451d81886141a7565b905081810360208301526145318187613e33565b905081810360408301526145458186613e33565b905081810360608301526145598185613e33565b9050818103608083015261456d81846144a5565b90509695505050505050565b7f4e487b7100000000000000000000000000000000000000000000000000000000600052602260045260246000fd5b600060028204905060018216806145c057607f821691505b6020821081036145d3576145d2614579565b5b50919050565b60006060820190506145ee60008301866138eb565b6145fb6020830185613ceb565b61460860408301846138eb565b949350505050565b7f4f6e6c792073656c6c65722063616e206368616e676520617661696c6162696c60008201527f6974790000000000000000000000000000000000000000000000000000000000602082015250565b600061466c6023836137af565b915061467782614610565b604082019050919050565b6000602082019050818103600083015261469b8161465f565b9050919050565b7f4974656d206e6f7420617661696c61626c650000000000000000000000000000600082015250565b60006146d86012836137af565b91506146e3826146a2565b602082019050919050565b60006020820190508181036000830152614707816146cb565b9050919050565b7f4e487b7100000000000000000000000000000000000000000000000000000000600052601160045260246000fd5b600061474882613856565b915061475383613856565b925082820261476181613856565b915082820484148315176147785761477761470e565b5b5092915050565b7f496e73756666696369656e742066756e64730000000000000000000000000000600082015250565b60006147b56012836137af565b91506147c08261477f565b602082019050919050565b600060208201905081810360008301526147e4816147a8565b9050919050565b7f53656c6c657220646f65736e2774206f776e204e465400000000000000000000600082015250565b60006148216016836137af565b915061482c826147eb565b602082019050919050565b6000602082019050818103600083015261485081614814565b9050919050565b7f596f7520617265206e6f7420746865206f776e6572206f662074686973204e4660008201527f5400000000000000000000000000000000000000000000000000000000000000602082015250565b60006148b36021836137af565b91506148be82614857565b604082019050919050565b600060208201905081810360008301526148e2816148a6565b9050919050565b7f53656c6c657220616c7265616479206578697374732e00000000000000000000600082015250565b600061491f6016836137af565b915061492a826148e9565b602082019050919050565b6000602082019050818103600083015261494e81614912565b9050919050565b7f4e6f7420656e6f7567682066756e647320746f2072656769737465722061732060008201527f73656c6c65722100000000000000000000000000000000000000000000000000602082015250565b60006149b16027836137af565b91506149bc82614955565b604082019050919050565b600060208201905081810360008301526149e0816149a4565b9050919050565b60008190508160005260206000209050919050565b60006020601f8301049050919050565b600082821b905092915050565b600060088302614a497fffffffffffffffffffffffffffffffffffffffffffffffffffffffffffffffff82614a0c565b614a538683614a0c565b95508019841693508086168417925050509392505050565b6000819050919050565b6000614a90614a8b614a8684613856565b614a6b565b613856565b9050919050565b6000819050919050565b614aaa83614a75565b614abe614ab682614a97565b848454614a19565b825550505050565b600090565b614ad3614ac6565b614ade818484614aa1565b505050565b5b81811015614b0257614af7600082614acb565b600181019050614ae4565b5050565b601f821115614b4757614b18816149e7565b614b21846149fc565b81016020851015614b30578190505b614b44614b3c856149fc565b830182614ae3565b50505b505050565b600082821c905092915050565b6000614b6a60001984600802614b4c565b1980831691505092915050565b6000614b838383614b59565b9150826002028217905092915050565b614b9c826137a4565b67ffffffffffffffff811115614bb557614bb4613a17565b5b614bbf82546145a8565b614bca828285614b06565b600060209050601f831160018114614bfd5760008415614beb578287015190505b614bf58582614b77565b865550614c5d565b601f198416614c0b866149e7565b60005b82811015614c3357848901518255600182019150602085019450602081019050614c0e565b86831015614c505784890151614c4c601f891682614b59565b8355505b6001600288020188555050505b505050505050565b600081905092915050565b6000614c7b826137a4565b614c858185614c65565b9350614c958185602086016137c0565b80840191505092915050565b6000614cad8284614c70565b915081905092915050565b6000614cc48285614c70565b9150614cd08284614c70565b91508190509392505050565b7f4e487b7100000000000000000000000000000000000000000000000000000000600052603260045260246000fd5b7f68747470733a2f2f000000000000000000000000000000000000000000000000600082015250565b6000614d41600883614c65565b9150614d4c82614d0b565b600882019050919050565b7f6d7970696e6174612e636c6f75642f697066732f000000000000000000000000600082015250565b6000614d8d601483614c65565b9150614d9882614d57565b601482019050919050565b6000614dae82614d34565b9150614dba8285614c70565b9150614dc582614d80565b9150614dd18284614c70565b91508190509392505050565b7f4f6e6c792073656c6c6572732063616e20706572666f726d207468697320616360008201527f74696f6e2e000000000000000000000000000000000000000000000000000000602082015250565b6000614e396025836137af565b9150614e4482614ddd565b604082019050919050565b60006020820190508181036000830152614e6881614e2c565b9050919050565b6000614e7a82613856565b9150614e8583613856565b9250828203905081811115614e9d57614e9c61470e565b5b92915050565b6000614eae826139d4565b915060ff8203614ec157614ec061470e565b5b600182019050919050565b6000614ed782613856565b91507fffffffffffffffffffffffffffffffffffffffffffffffffffffffffffffffff8203614f0957614f0861470e565b5b600182019050919050565b600081519050919050565b600082825260208201905092915050565b6000614f3b82614f14565b614f458185614f1f565b9350614f558185602086016137c0565b614f5e816137ea565b840191505092915050565b6000608082019050614f7e60008301876138eb565b614f8b60208301866138eb565b614f986040830185613ceb565b8181036060830152614faa8184614f30565b905095945050505050565b600081519050614fc481613715565b92915050565b600060208284031215614fe057614fdf6136df565b5b6000614fee84828501614fb5565b91505092915050565b600060408201905061500c60008301856138eb565b6150196020830184613ceb565b9392505050565b7f4e487b7100000000000000000000000000000000000000000000000000000000600052601260045260246000fdfea26469706673582212208faa01f00e1ee37db1a464cf5d0477c86a991f5221e9acac370e0667b5d52b7e64736f6c634300081c0033",
  "linkReferences": {},
  "deployedLinkReferences": {}
}